{
  "contractName": "HomeHelper",
  "abi": [
    {
      "constant": false,
      "inputs": [
        {
          "name": "_homeAddress",
          "type": "string"
        },
        {
          "name": "_homePrice",
          "type": "uint256"
        },
        {
          "name": "_homePicture",
          "type": "string"
        }
      ],
      "name": "_createHome",
      "outputs": [],
      "payable": false,
      "stateMutability": "nonpayable",
      "type": "function"
    },
    {
      "constant": true,
      "inputs": [
        {
          "name": "_index",
          "type": "uint256"
        }
      ],
      "name": "getHomeByIndex",
      "outputs": [
        {
          "name": "",
          "type": "string"
        },
        {
          "name": "",
          "type": "uint256"
        },
        {
          "name": "",
          "type": "string"
        },
        {
          "name": "",
          "type": "address"
        },
        {
          "name": "",
          "type": "uint256"
        }
      ],
      "payable": false,
      "stateMutability": "view",
      "type": "function"
    },
    {
      "constant": true,
      "inputs": [
        {
          "name": "",
          "type": "uint256"
        }
      ],
      "name": "homes",
      "outputs": [
        {
          "name": "homeAddress",
          "type": "string"
        },
        {
          "name": "homePrice",
          "type": "uint256"
        },
        {
          "name": "homePicture",
          "type": "string"
        },
        {
          "name": "homeOwner",
          "type": "address"
        }
      ],
      "payable": false,
      "stateMutability": "view",
      "type": "function"
    },
    {
      "constant": false,
      "inputs": [],
      "name": "renounceOwnership",
      "outputs": [],
      "payable": false,
      "stateMutability": "nonpayable",
      "type": "function"
    },
    {
      "constant": false,
      "inputs": [
        {
          "name": "receiverAddress",
          "type": "address"
        },
        {
          "name": "homeIndex",
          "type": "uint256"
        },
        {
          "name": "homePrice",
          "type": "uint256"
        }
      ],
      "name": "sendCoinToBuyHome",
      "outputs": [],
      "payable": true,
      "stateMutability": "payable",
      "type": "function"
    },
    {
      "constant": true,
      "inputs": [
        {
          "name": "",
          "type": "uint256"
        }
      ],
      "name": "homeToOwner",
      "outputs": [
        {
          "name": "",
          "type": "address"
        }
      ],
      "payable": false,
      "stateMutability": "view",
      "type": "function"
    },
    {
      "constant": true,
      "inputs": [],
      "name": "owner",
      "outputs": [
        {
          "name": "",
          "type": "address"
        }
      ],
      "payable": false,
      "stateMutability": "view",
      "type": "function"
    },
    {
      "constant": true,
      "inputs": [],
      "name": "isOwner",
      "outputs": [
        {
          "name": "",
          "type": "bool"
        }
      ],
      "payable": false,
      "stateMutability": "view",
      "type": "function"
    },
    {
      "constant": true,
      "inputs": [],
      "name": "getHomes",
      "outputs": [
        {
          "name": "",
          "type": "uint256[]"
        }
      ],
      "payable": false,
      "stateMutability": "view",
      "type": "function"
    },
    {
      "constant": false,
      "inputs": [
        {
          "name": "newOwner",
          "type": "address"
        }
      ],
      "name": "transferOwnership",
      "outputs": [],
      "payable": false,
      "stateMutability": "nonpayable",
      "type": "function"
    },
    {
      "anonymous": false,
      "inputs": [
        {
          "indexed": false,
          "name": "homeId",
          "type": "uint256"
        },
        {
          "indexed": false,
          "name": "homeAddress",
          "type": "string"
        },
        {
          "indexed": false,
          "name": "homePrice",
          "type": "uint256"
        },
        {
          "indexed": false,
          "name": "homePicture",
          "type": "string"
        }
      ],
      "name": "NewHome",
      "type": "event"
    },
    {
      "anonymous": false,
      "inputs": [
        {
          "indexed": true,
          "name": "_from",
          "type": "address"
        },
        {
          "indexed": true,
          "name": "_to",
          "type": "address"
        },
        {
          "indexed": false,
          "name": "_value",
          "type": "uint256"
        }
      ],
      "name": "Transfer",
      "type": "event"
    },
    {
      "anonymous": false,
      "inputs": [
        {
          "indexed": true,
          "name": "previousOwner",
          "type": "address"
        },
        {
          "indexed": true,
          "name": "newOwner",
          "type": "address"
        }
      ],
      "name": "OwnershipTransferred",
      "type": "event"
    },
    {
      "constant": true,
      "inputs": [
        {
          "name": "_owner",
          "type": "address"
        }
      ],
      "name": "getHomesByOwner",
      "outputs": [
        {
          "name": "",
          "type": "uint256[]"
        }
      ],
      "payable": false,
      "stateMutability": "view",
      "type": "function"
    }
  ],
  "bytecode": "0x6080604052336000806101000a81548173ffffffffffffffffffffffffffffffffffffffff021916908373ffffffffffffffffffffffffffffffffffffffff1602179055506000809054906101000a900473ffffffffffffffffffffffffffffffffffffffff1673ffffffffffffffffffffffffffffffffffffffff16600073ffffffffffffffffffffffffffffffffffffffff167f8be0079c531659141344cd1fd0a4f28419497f9722a3daafe3b4186f6b6457e060405160405180910390a361164a806100cf6000396000f3fe6080604052600436106100ae576000357c0100000000000000000000000000000000000000000000000000000000900463ffffffff168062d6331f146100b35780631dcee2551461021c57806361b0ef0a1461037d578063715018a6146104d757806380a4628f146104ee5780638250034e146105465780638d4d3e38146105c15780638da5cb5b146106675780638f32d59b146106be578063a33d4924146106ed578063f2fde38b14610759575b600080fd5b3480156100bf57600080fd5b5061021a600480360360608110156100d657600080fd5b81019080803590602001906401000000008111156100f357600080fd5b82018360208201111561010557600080fd5b8035906020019184600183028401116401000000008311171561012757600080fd5b91908080601f016020809104026020016040519081016040528093929190818152602001838380828437600081840152601f19601f820116905080830192505050505050509192919290803590602001909291908035906020019064010000000081111561019457600080fd5b8201836020820111156101a657600080fd5b803590602001918460018302840111640100000000831117156101c857600080fd5b91908080601f016020809104026020016040519081016040528093929190818152602001838380828437600081840152601f19601f8201169050808301925050505050505091929192905050506107aa565b005b34801561022857600080fd5b506102556004803603602081101561023f57600080fd5b8101908080359060200190929190505050610aa9565b6040518080602001868152602001806020018573ffffffffffffffffffffffffffffffffffffffff1673ffffffffffffffffffffffffffffffffffffffff168152602001848152602001838103835288818151815260200191508051906020019080838360005b838110156102d75780820151818401526020810190506102bc565b50505050905090810190601f1680156103045780820380516001836020036101000a031916815260200191505b50838103825286818151815260200191508051906020019080838360005b8381101561033d578082015181840152602081019050610322565b50505050905090810190601f16801561036a5780820380516001836020036101000a031916815260200191505b5097505050505050505060405180910390f35b34801561038957600080fd5b506103b6600480360360208110156103a057600080fd5b8101908080359060200190929190505050610ce1565b6040518080602001858152602001806020018473ffffffffffffffffffffffffffffffffffffffff1673ffffffffffffffffffffffffffffffffffffffff168152602001838103835287818151815260200191508051906020019080838360005b83811015610432578082015181840152602081019050610417565b50505050905090810190601f16801561045f5780820380516001836020036101000a031916815260200191505b50838103825285818151815260200191508051906020019080838360005b8381101561049857808201518184015260208101905061047d565b50505050905090810190601f1680156104c55780820380516001836020036101000a031916815260200191505b50965050505050505060405180910390f35b3480156104e357600080fd5b506104ec610e70565b005b6105446004803603606081101561050457600080fd5b81019080803573ffffffffffffffffffffffffffffffffffffffff1690602001909291908035906020019092919080359060200190929190505050610f42565b005b34801561055257600080fd5b5061057f6004803603602081101561056957600080fd5b8101908080359060200190929190505050610fa9565b604051808273ffffffffffffffffffffffffffffffffffffffff1673ffffffffffffffffffffffffffffffffffffffff16815260200191505060405180910390f35b3480156105cd57600080fd5b50610610600480360360208110156105e457600080fd5b81019080803573ffffffffffffffffffffffffffffffffffffffff169060200190929190505050610fdc565b6040518080602001828103825283818151815260200191508051906020019060200280838360005b83811015610653578082015181840152602081019050610638565b505050509050019250505060405180910390f35b34801561067357600080fd5b5061067c61110d565b604051808273ffffffffffffffffffffffffffffffffffffffff1673ffffffffffffffffffffffffffffffffffffffff16815260200191505060405180910390f35b3480156106ca57600080fd5b506106d3611136565b604051808215151515815260200191505060405180910390f35b3480156106f957600080fd5b5061070261118d565b6040518080602001828103825283818151815260200191508051906020019060200280838360005b8381101561074557808201518184015260208101905061072a565b505050509050019250505060405180910390f35b34801561076557600080fd5b506107a86004803603602081101561077c57600080fd5b81019080803573ffffffffffffffffffffffffffffffffffffffff1690602001909291905050506112c4565b005b60006001806080604051908101604052808781526020018681526020018581526020013373ffffffffffffffffffffffffffffffffffffffff1681525090806001815401808255809150509060018203906000526020600020906004020160009091929091909150600082015181600001908051906020019061082e929190611579565b50602082015181600101556040820151816002019080519060200190610855929190611579565b5060608201518160030160006101000a81548173ffffffffffffffffffffffffffffffffffffffff021916908373ffffffffffffffffffffffffffffffffffffffff1602179055505050039050336002600083815260200190815260200160002060006101000a81548173ffffffffffffffffffffffffffffffffffffffff021916908373ffffffffffffffffffffffffffffffffffffffff1602179055506109476001600360003373ffffffffffffffffffffffffffffffffffffffff1673ffffffffffffffffffffffffffffffffffffffff168152602001908152602001600020546112e390919063ffffffff16565b600360003373ffffffffffffffffffffffffffffffffffffffff1673ffffffffffffffffffffffffffffffffffffffff168152602001908152602001600020819055507f643e7f2a842321e762638e9c99102722cf86c51a300233a7d043e3e5b18b1d8181858585604051808581526020018060200184815260200180602001838103835286818151815260200191508051906020019080838360005b838110156109ff5780820151818401526020810190506109e4565b50505050905090810190601f168015610a2c5780820380516001836020036101000a031916815260200191505b50838103825284818151815260200191508051906020019080838360005b83811015610a65578082015181840152602081019050610a4a565b50505050905090810190601f168015610a925780820380516001836020036101000a031916815260200191505b50965050505050505060405180910390a150505050565b60606000606060008060606000606060008060008090505b600180549050811015610cc357808c1415610cb657600181815481101515610ae557fe5b90600052602060002090600402016000018054600181600116156101000203166002900480601f016020809104026020016040519081016040528092919081815260200182805460018160011615610100020316600290048015610b8a5780601f10610b5f57610100808354040283529160200191610b8a565b820191906000526020600020905b815481529060010190602001808311610b6d57829003601f168201915b50505050509550600181815481101515610ba057fe5b9060005260206000209060040201600101549450600181815481101515610bc357fe5b90600052602060002090600402016002018054600181600116156101000203166002900480601f016020809104026020016040519081016040528092919081815260200182805460018160011615610100020316600290048015610c685780601f10610c3d57610100808354040283529160200191610c68565b820191906000526020600020905b815481529060010190602001808311610c4b57829003601f168201915b50505050509350600181815481101515610c7e57fe5b906000526020600020906004020160030160009054906101000a900473ffffffffffffffffffffffffffffffffffffffff1692508091505b8080600101915050610ac1565b50848484848499509950995099509950505050505091939590929450565b600181815481101515610cf057fe5b9060005260206000209060040201600091509050806000018054600181600116156101000203166002900480601f016020809104026020016040519081016040528092919081815260200182805460018160011615610100020316600290048015610d9c5780601f10610d7157610100808354040283529160200191610d9c565b820191906000526020600020905b815481529060010190602001808311610d7f57829003601f168201915b505050505090806001015490806002018054600181600116156101000203166002900480601f016020809104026020016040519081016040528092919081815260200182805460018160011615610100020316600290048015610e405780601f10610e1557610100808354040283529160200191610e40565b820191906000526020600020905b815481529060010190602001808311610e2357829003601f168201915b5050505050908060030160009054906101000a900473ffffffffffffffffffffffffffffffffffffffff16905084565b610e78611136565b1515610e8357600080fd5b600073ffffffffffffffffffffffffffffffffffffffff166000809054906101000a900473ffffffffffffffffffffffffffffffffffffffff1673ffffffffffffffffffffffffffffffffffffffff167f8be0079c531659141344cd1fd0a4f28419497f9722a3daafe3b4186f6b6457e060405160405180910390a360008060006101000a81548173ffffffffffffffffffffffffffffffffffffffff021916908373ffffffffffffffffffffffffffffffffffffffff160217905550565b80803410151515610f5257600080fd5b3373ffffffffffffffffffffffffffffffffffffffff166108fc349081150290604051600060405180830381858888f19350505050158015610f98573d6000803e3d6000fd5b50610fa38484611301565b50505050565b60026020528060005260406000206000915054906101000a900473ffffffffffffffffffffffffffffffffffffffff1681565b606080600360008473ffffffffffffffffffffffffffffffffffffffff1673ffffffffffffffffffffffffffffffffffffffff1681526020019081526020016000205460405190808252806020026020018201604052801561104d5781602001602082028038833980820191505090505b509050600080905060008090505b600180549050811015611102578473ffffffffffffffffffffffffffffffffffffffff166002600083815260200190815260200160002060009054906101000a900473ffffffffffffffffffffffffffffffffffffffff1673ffffffffffffffffffffffffffffffffffffffff1614156110f5578083838151811015156110de57fe5b906020019060200201818152505081806001019250505b808060010191505061105b565b508192505050919050565b60008060009054906101000a900473ffffffffffffffffffffffffffffffffffffffff16905090565b60008060009054906101000a900473ffffffffffffffffffffffffffffffffffffffff1673ffffffffffffffffffffffffffffffffffffffff163373ffffffffffffffffffffffffffffffffffffffff1614905090565b606080600360003373ffffffffffffffffffffffffffffffffffffffff1673ffffffffffffffffffffffffffffffffffffffff16815260200190815260200160002054600180549050036040519080825280602002602001820160405280156112055781602001602082028038833980820191505090505b509050600080905060008090505b6001805490508110156112bb573373ffffffffffffffffffffffffffffffffffffffff166002600083815260200190815260200160002060009054906101000a900473ffffffffffffffffffffffffffffffffffffffff1673ffffffffffffffffffffffffffffffffffffffff161415156112ae5780838381518110151561129757fe5b906020019060200201818152505081806001019250505b8080600101915050611213565b50819250505090565b6112cc611136565b15156112d757600080fd5b6112e08161147f565b50565b60008082840190508381101515156112f757fe5b8091505092915050565b60008090505b60018054905081101561147a578181141561146d573360018281548110151561132c57fe5b906000526020600020906004020160030160006101000a81548173ffffffffffffffffffffffffffffffffffffffff021916908373ffffffffffffffffffffffffffffffffffffffff160217905550336002600084815260200190815260200160002060006101000a81548173ffffffffffffffffffffffffffffffffffffffff021916908373ffffffffffffffffffffffffffffffffffffffff160217905550600360003373ffffffffffffffffffffffffffffffffffffffff1673ffffffffffffffffffffffffffffffffffffffff16815260200190815260200160002060008154809291906001019190505550600360008473ffffffffffffffffffffffffffffffffffffffff1673ffffffffffffffffffffffffffffffffffffffff16815260200190815260200160002060008154809291906001900391905055505b8080600101915050611307565b505050565b600073ffffffffffffffffffffffffffffffffffffffff168173ffffffffffffffffffffffffffffffffffffffff16141515156114bb57600080fd5b8073ffffffffffffffffffffffffffffffffffffffff166000809054906101000a900473ffffffffffffffffffffffffffffffffffffffff1673ffffffffffffffffffffffffffffffffffffffff167f8be0079c531659141344cd1fd0a4f28419497f9722a3daafe3b4186f6b6457e060405160405180910390a3806000806101000a81548173ffffffffffffffffffffffffffffffffffffffff021916908373ffffffffffffffffffffffffffffffffffffffff16021790555050565b828054600181600116156101000203166002900490600052602060002090601f016020900481019282601f106115ba57805160ff19168380011785556115e8565b828001600101855582156115e8579182015b828111156115e75782518255916020019190600101906115cc565b5b5090506115f591906115f9565b5090565b61161b91905b808211156116175760008160009055506001016115ff565b5090565b9056fea165627a7a72305820b1a84619c2b3f7efa22bec4c0351092461e7665d5d33da65ca4d3b34755e41840029",
  "source": "pragma solidity ^0.5.0;\n\nimport \"./HomeFeeding.sol\";\n\ncontract HomeHelper is HomeFeeding {\n\n  function getHomesByOwner(address _owner) external view returns(uint[] memory) {\n    uint[] memory result = new uint[](ownerHomeCount[_owner]);\n    uint counter = 0;\n    for (uint i = 0; i < homes.length; i++) {\n      if (homeToOwner[i] == _owner) {\n        result[counter] = i;\n        counter++;\n      }\n    }\n    return result;\n  }\n\n}\n",
  "sourcePath": "/Users/berangerelatouche/Desktop/blockchain/contracts/HomeHelper.sol",
  "compiler": {
    "name": "solc",
    "version": "0.5.0+commit.1d4f565a.Emscripten.clang"
  },
  "schemaVersion": "3.0.2",
  "updatedAt": "2019-03-08T16:52:23.433Z",
  "devdoc": {
    "methods": {
      "isOwner()": {
        "return": "true if `msg.sender` is the owner of the contract."
      },
      "owner()": {
        "return": "the address of the owner."
      },
      "renounceOwnership()": {
        "details": "Allows the current owner to relinquish control of the contract."
      },
      "transferOwnership(address)": {
        "details": "Allows the current owner to transfer control of the contract to a newOwner.",
        "params": {
          "newOwner": "The address to transfer ownership to."
        }
      }
    }
  },
  "userdoc": {
    "methods": {
      "renounceOwnership()": {
        "notice": "Renouncing to ownership will leave the contract without an owner. It will not be possible to call the functions with the `onlyOwner` modifier anymore."
      }
    }
  }
}