{
  "contractName": "HomeFactory",
  "abi": [
    {
      "constant": true,
      "inputs": [
        {
          "name": "",
          "type": "uint256"
        }
      ],
      "name": "homes",
      "outputs": [
        {
          "name": "homeAddress",
          "type": "string"
        },
        {
          "name": "homePrice",
          "type": "uint256"
        },
        {
          "name": "homePicture",
          "type": "string"
        },
        {
          "name": "homeOwner",
          "type": "address"
        }
      ],
      "payable": false,
      "stateMutability": "view",
      "type": "function",
      "signature": "0x61b0ef0a"
    },
    {
      "constant": false,
      "inputs": [],
      "name": "renounceOwnership",
      "outputs": [],
      "payable": false,
      "stateMutability": "nonpayable",
      "type": "function",
      "signature": "0x715018a6"
    },
    {
      "constant": true,
      "inputs": [
        {
          "name": "",
          "type": "uint256"
        }
      ],
      "name": "homeToOwner",
      "outputs": [
        {
          "name": "",
          "type": "address"
        }
      ],
      "payable": false,
      "stateMutability": "view",
      "type": "function",
      "signature": "0x8250034e"
    },
    {
      "constant": true,
      "inputs": [],
      "name": "owner",
      "outputs": [
        {
          "name": "",
          "type": "address"
        }
      ],
      "payable": false,
      "stateMutability": "view",
      "type": "function",
      "signature": "0x8da5cb5b"
    },
    {
      "constant": true,
      "inputs": [],
      "name": "isOwner",
      "outputs": [
        {
          "name": "",
          "type": "bool"
        }
      ],
      "payable": false,
      "stateMutability": "view",
      "type": "function",
      "signature": "0x8f32d59b"
    },
    {
      "constant": false,
      "inputs": [
        {
          "name": "newOwner",
          "type": "address"
        }
      ],
      "name": "transferOwnership",
      "outputs": [],
      "payable": false,
      "stateMutability": "nonpayable",
      "type": "function",
      "signature": "0xf2fde38b"
    },
    {
      "inputs": [],
      "payable": false,
      "stateMutability": "nonpayable",
      "type": "constructor",
      "signature": "constructor"
    },
    {
      "anonymous": false,
      "inputs": [
        {
          "indexed": false,
          "name": "homeId",
          "type": "uint256"
        },
        {
          "indexed": false,
          "name": "homeAddress",
          "type": "string"
        },
        {
          "indexed": false,
          "name": "homePrice",
          "type": "uint256"
        },
        {
          "indexed": false,
          "name": "homePicture",
          "type": "string"
        }
      ],
      "name": "NewHome",
      "type": "event",
      "signature": "0x643e7f2a842321e762638e9c99102722cf86c51a300233a7d043e3e5b18b1d81"
    },
    {
      "anonymous": false,
      "inputs": [
        {
          "indexed": true,
          "name": "_from",
          "type": "address"
        },
        {
          "indexed": true,
          "name": "_to",
          "type": "address"
        },
        {
          "indexed": false,
          "name": "_value",
          "type": "uint256"
        }
      ],
      "name": "Transfer",
      "type": "event",
      "signature": "0xddf252ad1be2c89b69c2b068fc378daa952ba7f163c4a11628f55a4df523b3ef"
    },
    {
      "anonymous": false,
      "inputs": [
        {
          "indexed": true,
          "name": "previousOwner",
          "type": "address"
        },
        {
          "indexed": true,
          "name": "newOwner",
          "type": "address"
        }
      ],
      "name": "OwnershipTransferred",
      "type": "event",
      "signature": "0x8be0079c531659141344cd1fd0a4f28419497f9722a3daafe3b4186f6b6457e0"
    },
    {
      "constant": false,
      "inputs": [
        {
          "name": "_homeAddress",
          "type": "string"
        },
        {
          "name": "_homePrice",
          "type": "uint256"
        },
        {
          "name": "_homePicture",
          "type": "string"
        }
      ],
      "name": "_createHome",
      "outputs": [],
      "payable": false,
      "stateMutability": "nonpayable",
      "type": "function",
      "signature": "0x00d6331f"
    },
    {
      "constant": true,
      "inputs": [],
      "name": "getHomes",
      "outputs": [
        {
          "name": "",
          "type": "uint256[]"
        }
      ],
      "payable": false,
      "stateMutability": "view",
      "type": "function",
      "signature": "0xa33d4924"
    },
    {
      "constant": true,
      "inputs": [
        {
          "name": "_owner",
          "type": "address"
        }
      ],
      "name": "getHomesByOwner",
      "outputs": [
        {
          "name": "",
          "type": "uint256[]"
        }
      ],
      "payable": false,
      "stateMutability": "view",
      "type": "function",
      "signature": "0x8d4d3e38"
    },
    {
      "constant": true,
      "inputs": [
        {
          "name": "_index",
          "type": "uint256"
        }
      ],
      "name": "getHomeByIndex",
      "outputs": [
        {
          "name": "",
          "type": "string"
        },
        {
          "name": "",
          "type": "uint256"
        },
        {
          "name": "",
          "type": "string"
        },
        {
          "name": "",
          "type": "address"
        },
        {
          "name": "",
          "type": "uint256"
        }
      ],
      "payable": false,
      "stateMutability": "view",
      "type": "function",
      "signature": "0x1dcee255"
    },
    {
      "constant": false,
      "inputs": [
        {
          "name": "receiverAddress",
          "type": "address"
        },
        {
          "name": "homeIndex",
          "type": "uint256"
        },
        {
          "name": "homePrice",
          "type": "uint256"
        }
      ],
      "name": "sendCoinToBuyHome",
      "outputs": [],
      "payable": true,
      "stateMutability": "payable",
      "type": "function",
      "signature": "0x80a4628f"
    }
  ],
  "bytecode": "0x608060405234801561001057600080fd5b50336000806101000a81548173ffffffffffffffffffffffffffffffffffffffff021916908373ffffffffffffffffffffffffffffffffffffffff1602179055506000809054906101000a900473ffffffffffffffffffffffffffffffffffffffff1673ffffffffffffffffffffffffffffffffffffffff16600073ffffffffffffffffffffffffffffffffffffffff167f8be0079c531659141344cd1fd0a4f28419497f9722a3daafe3b4186f6b6457e060405160405180910390a36115c2806100dc6000396000f3fe6080604052600436106100ae576000357c0100000000000000000000000000000000000000000000000000000000900463ffffffff168062d6331f146100b35780631dcee255146100dc57806361b0ef0a1461011d578063715018a61461015d57806380a4628f146101745780638250034e146101905780638d4d3e38146101cd5780638da5cb5b1461020a5780638f32d59b14610235578063a33d492414610260578063f2fde38b1461028b575b600080fd5b3480156100bf57600080fd5b506100da60048036036100d59190810190611142565b6102b4565b005b3480156100e857600080fd5b5061010360048036036100fe91908101906111c1565b6104d7565b604051610114959493929190611336565b60405180910390f35b34801561012957600080fd5b50610144600480360361013f91908101906111c1565b61070f565b6040516101549493929190611397565b60405180910390f35b34801561016957600080fd5b5061017261089e565b005b61018e600480360361018991908101906110f3565b610970565b005b34801561019c57600080fd5b506101b760048036036101b291908101906111c1565b6109d7565b6040516101c491906112de565b60405180910390f35b3480156101d957600080fd5b506101f460048036036101ef91908101906110ca565b610a0a565b60405161020191906112f9565b60405180910390f35b34801561021657600080fd5b5061021f610b3b565b60405161022c91906112de565b60405180910390f35b34801561024157600080fd5b5061024a610b64565b604051610257919061131b565b60405180910390f35b34801561026c57600080fd5b50610275610bbb565b60405161028291906112f9565b60405180910390f35b34801561029757600080fd5b506102b260048036036102ad91908101906110ca565b610cf2565b005b60006001806080604051908101604052808781526020018681526020018581526020013373ffffffffffffffffffffffffffffffffffffffff16815250908060018154018082558091505090600182039060005260206000209060040201600090919290919091506000820151816000019080519060200190610338929190610fa7565b5060208201518160010155604082015181600201908051906020019061035f929190610fa7565b5060608201518160030160006101000a81548173ffffffffffffffffffffffffffffffffffffffff021916908373ffffffffffffffffffffffffffffffffffffffff1602179055505050039050336002600083815260200190815260200160002060006101000a81548173ffffffffffffffffffffffffffffffffffffffff021916908373ffffffffffffffffffffffffffffffffffffffff1602179055506104516001600360003373ffffffffffffffffffffffffffffffffffffffff1673ffffffffffffffffffffffffffffffffffffffff16815260200190815260200160002054610d1190919063ffffffff16565b600360003373ffffffffffffffffffffffffffffffffffffffff1673ffffffffffffffffffffffffffffffffffffffff168152602001908152602001600020819055507f643e7f2a842321e762638e9c99102722cf86c51a300233a7d043e3e5b18b1d81818585856040516104c994939291906113ea565b60405180910390a150505050565b60606000606060008060606000606060008060008090505b6001805490508110156106f157808c14156106e45760018181548110151561051357fe5b90600052602060002090600402016000018054600181600116156101000203166002900480601f0160208091040260200160405190810160405280929190818152602001828054600181600116156101000203166002900480156105b85780601f1061058d576101008083540402835291602001916105b8565b820191906000526020600020905b81548152906001019060200180831161059b57829003601f168201915b505050505095506001818154811015156105ce57fe5b90600052602060002090600402016001015494506001818154811015156105f157fe5b90600052602060002090600402016002018054600181600116156101000203166002900480601f0160208091040260200160405190810160405280929190818152602001828054600181600116156101000203166002900480156106965780601f1061066b57610100808354040283529160200191610696565b820191906000526020600020905b81548152906001019060200180831161067957829003601f168201915b505050505093506001818154811015156106ac57fe5b906000526020600020906004020160030160009054906101000a900473ffffffffffffffffffffffffffffffffffffffff1692508091505b80806001019150506104ef565b50848484848499509950995099509950505050505091939590929450565b60018181548110151561071e57fe5b9060005260206000209060040201600091509050806000018054600181600116156101000203166002900480601f0160208091040260200160405190810160405280929190818152602001828054600181600116156101000203166002900480156107ca5780601f1061079f576101008083540402835291602001916107ca565b820191906000526020600020905b8154815290600101906020018083116107ad57829003601f168201915b505050505090806001015490806002018054600181600116156101000203166002900480601f01602080910402602001604051908101604052809291908181526020018280546001816001161561010002031660029004801561086e5780601f106108435761010080835404028352916020019161086e565b820191906000526020600020905b81548152906001019060200180831161085157829003601f168201915b5050505050908060030160009054906101000a900473ffffffffffffffffffffffffffffffffffffffff16905084565b6108a6610b64565b15156108b157600080fd5b600073ffffffffffffffffffffffffffffffffffffffff166000809054906101000a900473ffffffffffffffffffffffffffffffffffffffff1673ffffffffffffffffffffffffffffffffffffffff167f8be0079c531659141344cd1fd0a4f28419497f9722a3daafe3b4186f6b6457e060405160405180910390a360008060006101000a81548173ffffffffffffffffffffffffffffffffffffffff021916908373ffffffffffffffffffffffffffffffffffffffff160217905550565b8080341015151561098057600080fd5b3373ffffffffffffffffffffffffffffffffffffffff166108fc349081150290604051600060405180830381858888f193505050501580156109c6573d6000803e3d6000fd5b506109d18484610d2f565b50505050565b60026020528060005260406000206000915054906101000a900473ffffffffffffffffffffffffffffffffffffffff1681565b606080600360008473ffffffffffffffffffffffffffffffffffffffff1673ffffffffffffffffffffffffffffffffffffffff16815260200190815260200160002054604051908082528060200260200182016040528015610a7b5781602001602082028038833980820191505090505b509050600080905060008090505b600180549050811015610b30578473ffffffffffffffffffffffffffffffffffffffff166002600083815260200190815260200160002060009054906101000a900473ffffffffffffffffffffffffffffffffffffffff1673ffffffffffffffffffffffffffffffffffffffff161415610b2357808383815181101515610b0c57fe5b906020019060200201818152505081806001019250505b8080600101915050610a89565b508192505050919050565b60008060009054906101000a900473ffffffffffffffffffffffffffffffffffffffff16905090565b60008060009054906101000a900473ffffffffffffffffffffffffffffffffffffffff1673ffffffffffffffffffffffffffffffffffffffff163373ffffffffffffffffffffffffffffffffffffffff1614905090565b606080600360003373ffffffffffffffffffffffffffffffffffffffff1673ffffffffffffffffffffffffffffffffffffffff1681526020019081526020016000205460018054905003604051908082528060200260200182016040528015610c335781602001602082028038833980820191505090505b509050600080905060008090505b600180549050811015610ce9573373ffffffffffffffffffffffffffffffffffffffff166002600083815260200190815260200160002060009054906101000a900473ffffffffffffffffffffffffffffffffffffffff1673ffffffffffffffffffffffffffffffffffffffff16141515610cdc57808383815181101515610cc557fe5b906020019060200201818152505081806001019250505b8080600101915050610c41565b50819250505090565b610cfa610b64565b1515610d0557600080fd5b610d0e81610ead565b50565b6000808284019050838110151515610d2557fe5b8091505092915050565b60008090505b600180549050811015610ea85781811415610e9b5733600182815481101515610d5a57fe5b906000526020600020906004020160030160006101000a81548173ffffffffffffffffffffffffffffffffffffffff021916908373ffffffffffffffffffffffffffffffffffffffff160217905550336002600084815260200190815260200160002060006101000a81548173ffffffffffffffffffffffffffffffffffffffff021916908373ffffffffffffffffffffffffffffffffffffffff160217905550600360003373ffffffffffffffffffffffffffffffffffffffff1673ffffffffffffffffffffffffffffffffffffffff16815260200190815260200160002060008154809291906001019190505550600360008473ffffffffffffffffffffffffffffffffffffffff1673ffffffffffffffffffffffffffffffffffffffff16815260200190815260200160002060008154809291906001900391905055505b8080600101915050610d35565b505050565b600073ffffffffffffffffffffffffffffffffffffffff168173ffffffffffffffffffffffffffffffffffffffff1614151515610ee957600080fd5b8073ffffffffffffffffffffffffffffffffffffffff166000809054906101000a900473ffffffffffffffffffffffffffffffffffffffff1673ffffffffffffffffffffffffffffffffffffffff167f8be0079c531659141344cd1fd0a4f28419497f9722a3daafe3b4186f6b6457e060405160405180910390a3806000806101000a81548173ffffffffffffffffffffffffffffffffffffffff021916908373ffffffffffffffffffffffffffffffffffffffff16021790555050565b828054600181600116156101000203166002900490600052602060002090601f016020900481019282601f10610fe857805160ff1916838001178555611016565b82800160010185558215611016579182015b82811115611015578251825591602001919060010190610ffa565b5b5090506110239190611027565b5090565b61104991905b8082111561104557600081600090555060010161102d565b5090565b90565b60006110588235611519565b905092915050565b600082601f830112151561107357600080fd5b81356110866110818261146a565b61143d565b915080825260208301602083018583830111156110a257600080fd5b6110ad838284611535565b50505092915050565b60006110c2823561152b565b905092915050565b6000602082840312156110dc57600080fd5b60006110ea8482850161104c565b91505092915050565b60008060006060848603121561110857600080fd5b60006111168682870161104c565b9350506020611127868287016110b6565b9250506040611138868287016110b6565b9150509250925092565b60008060006060848603121561115757600080fd5b600084013567ffffffffffffffff81111561117157600080fd5b61117d86828701611060565b935050602061118e868287016110b6565b925050604084013567ffffffffffffffff8111156111ab57600080fd5b6111b786828701611060565b9150509250925092565b6000602082840312156111d357600080fd5b60006111e1848285016110b6565b91505092915050565b6111f3816114d1565b82525050565b6000611204826114a3565b80845260208401935061121683611496565b60005b828110156112485761122c8683516112cf565b611235826114c4565b9150602086019550600181019050611219565b50849250505092915050565b61125d816114e3565b82525050565b600061126e826114b9565b808452611282816020860160208601611544565b61128b81611577565b602085010191505092915050565b60006112a4826114ae565b8084526112b8816020860160208601611544565b6112c181611577565b602085010191505092915050565b6112d88161150f565b82525050565b60006020820190506112f360008301846111ea565b92915050565b6000602082019050818103600083015261131381846111f9565b905092915050565b60006020820190506113306000830184611254565b92915050565b600060a08201905081810360008301526113508188611263565b905061135f60208301876112cf565b81810360408301526113718186611263565b905061138060608301856111ea565b61138d60808301846112cf565b9695505050505050565b600060808201905081810360008301526113b18187611299565b90506113c060208301866112cf565b81810360408301526113d28185611299565b90506113e160608301846111ea565b95945050505050565b60006080820190506113ff60008301876112cf565b81810360208301526114118186611263565b905061142060408301856112cf565b81810360608301526114328184611263565b905095945050505050565b6000604051905081810181811067ffffffffffffffff8211171561146057600080fd5b8060405250919050565b600067ffffffffffffffff82111561148157600080fd5b601f19601f8301169050602081019050919050565b6000602082019050919050565b600081519050919050565b600081519050919050565b600081519050919050565b6000602082019050919050565b60006114dc826114ef565b9050919050565b60008115159050919050565b600073ffffffffffffffffffffffffffffffffffffffff82169050919050565b6000819050919050565b6000611524826114ef565b9050919050565b6000819050919050565b82818337600083830152505050565b60005b83811015611562578082015181840152602081019050611547565b83811115611571576000848401525b50505050565b6000601f19601f830116905091905056fea265627a7a7230582068d2f573fbc10e48bfb47853ecfe30e826e0b6e7836ff24ce4d8c9f20071fa666c6578706572696d656e74616cf50037",
  "source": "pragma solidity ^0.5.0;\npragma experimental ABIEncoderV2;\n\nimport \"./Ownable.sol\";\nimport \"./Safemath.sol\";\n\ncontract HomeFactory is Ownable {\n\n  using SafeMath for uint256;\n\n  event NewHome(uint homeId, string homeAddress, uint homePrice, string homePicture);\n  event Transfer(address indexed _from, address indexed _to, uint256 _value);\n\n  struct Home {\n    string homeAddress;\n    uint homePrice;\n    string homePicture;\n    address homeOwner;\n  }\n\n  Home[] public homes;\n\n  modifier hasMoney(uint value) {\n    require(msg.value >= value);\n    _;\n  }\n\n  mapping (uint => address) public homeToOwner;\n  mapping (address => uint) ownerHomeCount;\n  mapping (address => uint) balances;\n\n  constructor() public {\n\n  }\n\n  function _createHome(string memory _homeAddress, uint _homePrice, string memory _homePicture) public {\n    uint id = homes.push(Home(_homeAddress, _homePrice, _homePicture, msg.sender)) - 1;\n    homeToOwner[id] = msg.sender;\n    ownerHomeCount[msg.sender] = ownerHomeCount[msg.sender].add(1);\n    emit NewHome(id, _homeAddress, _homePrice, _homePicture);\n  }\n\n  function getHomes() external view returns(uint[] memory) {\n    uint[] memory indexes = new uint[](homes.length - ownerHomeCount[msg.sender]);\n    uint counter = 0;\n    for (uint i = 0; i < homes.length; i++) {\n      if (homeToOwner[i] != msg.sender) {\n        indexes[counter] = i;\n        counter++;\n      }\n    }\n    return indexes;\n  }\n\n  function getHomesByOwner(address _owner) external view returns(uint[] memory) {\n    uint[] memory result = new uint[](ownerHomeCount[_owner]);\n    uint counter = 0;\n    for (uint i = 0; i < homes.length; i++) {\n      if (homeToOwner[i] == _owner) {\n        result[counter] = i;\n        counter++;\n      }\n    }\n    return result;\n  }\n\n  function getHomeByIndex(uint _index) external view returns(string memory, uint, string memory, address, uint) {\n    string memory currentHomeAddress;\n    uint currentHomePrice;\n    string memory currentHomePicture;\n    address currentHomeOwner;\n    uint homeIndex;\n    for (uint i = 0; i < homes.length; i++) {\n      if (_index == i) {\n        currentHomeAddress = homes[i].homeAddress;\n        currentHomePrice = homes[i].homePrice;\n        currentHomePicture = homes[i].homePicture;\n        currentHomeOwner = homes[i].homeOwner;\n        homeIndex = i;\n      }\n    }\n    return (currentHomeAddress, currentHomePrice, currentHomePicture, currentHomeOwner, homeIndex);\n  }\n\n  function updateOwner(address addressOldOwner, uint position) private {\n    for (uint i = 0; i < homes.length; i++) {\n      if (i == position) {\n        homes[i].homeOwner = msg.sender;\n        homeToOwner[position] = msg.sender;\n        ownerHomeCount[msg.sender]++;\n        ownerHomeCount[addressOldOwner]--;\n      }\n    }\n  }\n\n  function sendCoinToBuyHome(address receiverAddress, uint homeIndex, uint homePrice) public hasMoney(homePrice) payable  {\n     msg.sender.transfer(msg.value);\n     updateOwner(receiverAddress, homeIndex);\n\t}\n\n}\n",
  "sourcePath": "/Users/berangerelatouche/Desktop/blockchain/contracts/HomeFactory.sol",
  "compiler": {
    "name": "solc",
    "version": "0.5.0+commit.1d4f565a.Emscripten.clang"
  },
  "schemaVersion": "3.0.2",
  "updatedAt": "2019-03-08T16:52:26.156Z",
  "devdoc": {
    "methods": {
      "isOwner()": {
        "return": "true if `msg.sender` is the owner of the contract."
      },
      "owner()": {
        "return": "the address of the owner."
      },
      "renounceOwnership()": {
        "details": "Allows the current owner to relinquish control of the contract."
      },
      "transferOwnership(address)": {
        "details": "Allows the current owner to transfer control of the contract to a newOwner.",
        "params": {
          "newOwner": "The address to transfer ownership to."
        }
      }
    }
  },
  "userdoc": {
    "methods": {
      "renounceOwnership()": {
        "notice": "Renouncing to ownership will leave the contract without an owner. It will not be possible to call the functions with the `onlyOwner` modifier anymore."
      }
    }
  }
}